{
  "contractName": "SupplyChain",
  "abi": [
    {
      "constant": true,
      "inputs": [
        {
          "name": "",
          "type": "uint256"
        }
      ],
      "name": "orderList",
      "outputs": [
        {
          "name": "",
          "type": "uint256"
        }
      ],
      "payable": false,
      "stateMutability": "view",
      "type": "function"
    },
    {
      "constant": false,
      "inputs": [
        {
          "name": "_orderId",
          "type": "uint256"
        },
        {
          "name": "_shipCompId",
          "type": "string"
        },
        {
          "name": "_receiptCompId",
          "type": "string"
        },
        {
          "name": "_productId",
          "type": "string"
        },
        {
          "name": "_quantity",
          "type": "uint256"
        }
      ],
      "name": "saveOrder",
      "outputs": [],
      "payable": false,
      "stateMutability": "nonpayable",
      "type": "function"
    },
    {
      "constant": true,
      "inputs": [],
      "name": "viewOrderList",
      "outputs": [
        {
          "name": "",
          "type": "uint256[]"
        }
      ],
      "payable": false,
      "stateMutability": "view",
      "type": "function"
    },
    {
      "constant": true,
      "inputs": [
        {
          "name": "_orderId",
          "type": "uint256"
        }
      ],
      "name": "viewOrder",
      "outputs": [
        {
          "name": "",
          "type": "string"
        },
        {
          "name": "",
          "type": "string"
        },
        {
          "name": "",
          "type": "string"
        },
        {
          "name": "",
          "type": "uint256"
        }
      ],
      "payable": false,
      "stateMutability": "view",
      "type": "function"
    },
    {
      "constant": true,
      "inputs": [],
      "name": "countOrders",
      "outputs": [
        {
          "name": "",
          "type": "uint256"
        }
      ],
      "payable": false,
      "stateMutability": "view",
      "type": "function"
    }
  ],
  "bytecode": "0x608060405234801561001057600080fd5b50610816806100206000396000f30060806040526004361061006d576000357c0100000000000000000000000000000000000000000000000000000000900463ffffffff1680630d73c6de1461007257806376f75e7f1461009d5780637c38d663146100de578063e4f2ee7814610263578063fd843dcc146102cf575b600080fd5b34801561007e57600080fd5b506100876103d8565b6040518082815260200191505060405180910390f35b3480156100a957600080fd5b506100c8600480360381019080803590602001909291905050506103e5565b6040518082815260200191505060405180910390f35b3480156100ea57600080fd5b5061010960048036038101908080359060200190929190505050610408565b60405180806020018060200180602001858152602001848103845288818151815260200191508051906020019080838360005b8381101561015757808201518184015260208101905061013c565b50505050905090810190601f1680156101845780820380516001836020036101000a031916815260200191505b50848103835287818151815260200191508051906020019080838360005b838110156101bd5780820151818401526020810190506101a2565b50505050905090810190601f1680156101ea5780820380516001836020036101000a031916815260200191505b50848103825286818151815260200191508051906020019080838360005b83811015610223578082015181840152602081019050610208565b50505050905090810190601f1680156102505780820380516001836020036101000a031916815260200191505b5097505050505050505060405180910390f35b34801561026f57600080fd5b5061027861064b565b6040518080602001828103825283818151815260200191508051906020019060200280838360005b838110156102bb5780820151818401526020810190506102a0565b505050509050019250505060405180910390f35b3480156102db57600080fd5b506103d660048036038101908080359060200190929190803590602001908201803590602001908080601f0160208091040260200160405190810160405280939291908181526020018383808284378201915050505050509192919290803590602001908201803590602001908080601f0160208091040260200160405190810160405280939291908181526020018383808284378201915050505050509192919290803590602001908201803590602001908080601f0160208091040260200160405190810160405280939291908181526020018383808284378201915050505050509192919290803590602001909291905050506106a3565b005b6000600280549050905090565b6002818154811015156103f457fe5b906000526020600020016000915090505481565b606080606060006001600086815260200190815260200160002060000160016000878152602001908152602001600020600101600160008881526020019081526020016000206002016001600089815260200190815260200160002060030154838054600181600116156101000203166002900480601f0160208091040260200160405190810160405280929190818152602001828054600181600116156101000203166002900480156104fd5780601f106104d2576101008083540402835291602001916104fd565b820191906000526020600020905b8154815290600101906020018083116104e057829003601f168201915b50505050509350828054600181600116156101000203166002900480601f0160208091040260200160405190810160405280929190818152602001828054600181600116156101000203166002900480156105995780601f1061056e57610100808354040283529160200191610599565b820191906000526020600020905b81548152906001019060200180831161057c57829003601f168201915b50505050509250818054600181600116156101000203166002900480601f0160208091040260200160405190810160405280929190818152602001828054600181600116156101000203166002900480156106355780601f1061060a57610100808354040283529160200191610635565b820191906000526020600020905b81548152906001019060200180831161061857829003601f168201915b5050505050915093509350935093509193509193565b6060600280548060200260200160405190810160405280929190818152602001828054801561069957602002820191906000526020600020905b815481526020019060010190808311610685575b5050505050905090565b6000600160008781526020019081526020016000209050848160000190805190602001906106d2929190610745565b50838160010190805190602001906106eb929190610745565b5082816002019080519060200190610704929190610745565b508181600301819055506001600287908060018154018082558091505090600182039060005260206000200160009091929091909150555050505050505050565b828054600181600116156101000203166002900490600052602060002090601f016020900481019282601f1061078657805160ff19168380011785556107b4565b828001600101855582156107b4579182015b828111156107b3578251825591602001919060010190610798565b5b5090506107c191906107c5565b5090565b6107e791905b808211156107e35760008160009055506001016107cb565b5090565b905600a165627a7a723058208746e44a5bd9e02e997a6ade7f348498fd8e09f9a92dbdad49b088086b4d80bb0029",
  "source": "pragma solidity ^0.4.18;\n\ncontract SupplyChain {\n    \n    struct Order {\n        string shipCompId;\n        string receiptCompId;\n       // uint status;\n        string productId;\n        uint quantity;\n\n    }\n     \n    uint orderId; \n    mapping (uint => Order) orders;\n    uint[] public orderList;\n\n\n    function saveOrder(uint _orderId, string _shipCompId, string _receiptCompId, string _productId, uint _quantity) public {\n    \tvar newOrder = orders[_orderId];\n\n    \tnewOrder.shipCompId = _shipCompId;\n    \tnewOrder.receiptCompId = _receiptCompId;\n    \tnewOrder.productId = _productId;\n    \tnewOrder.quantity = _quantity;\n\n    \torderList.push(_orderId) -1;\n\n    }\n    \n    \n    function viewOrderList() view public returns(uint[]) {\n        return orderList;\n    }\n    \n    function viewOrder(uint _orderId) view public returns (string, string, string, uint) {\n        return (orders[_orderId].shipCompId, orders[_orderId].receiptCompId, orders[_orderId].productId, orders[_orderId].quantity);\n    }\n    \n    function countOrders() view public returns (uint) {\n        return orderList.length;\n    }\n    \n}",
  "sourcePath": "/Users/mayankraikwar/Hackathon/SupplyChain/contracts/SupplyChain.sol",
  "compiler": {
    "name": "solc",
    "version": "0.4.23+commit.124ca40d.Emscripten.clang"
  },
  "schemaVersion": "2.0.0",
  "updatedAt": "2018-05-13T04:59:34.341Z"
}